:10020000EBC0000011C100000FC100000DC10000D3
:100210000BC1000009C1000007C1000005C10000BA
:1002200003C1000001C10000FFC00000FDC00000CC
:10023000FBC00000F9C00000F7C000000C94D60F0E
:10024000F3C00000F1C00000EFC00000EDC00000EE
:10025000EBC00000E9C00000E7C00000E5C00000FE
:10026000E3C00000E1C00000DFC000000C94560FA6
:100270000C94500F0C945C0FD7C000004E656E6854
:10028000756D612063616C69627261C3A7C3A36FFE
:100290002076C3A16C69646120656E636F6E7472B1
:1002A000616461206E6120454550524F4D2C207590
:1002B00073616E646F2063616C69627261C3A7C30E
:1002C000A36F2070616472616F2073656E736F72CB
:1002D0002E0043616C69627261C3A7C3A36F206380
:1002E00061727265676164612064612045455052A6
:1002F0004F4D2E0020433D0020423D0020473D0051
:1003000056616C6F7265732073656D2063616C69F3
:10031000627261C3A7C3A36F3A20523D0053656E5A
:10032000736F72206EC3A36F20696E696369616C1D
:10033000697A61646F2E204EC3A36F20C3A9207019
:100340006F7373C3AD76656C2063616C69627261B3
:10035000722E0043616C69627261C3A7C3A36F20F0
:1003600073616C7661206E6120454550524F4D2E71
:100370000053656E736F722054435320646F206D79
:1003800065696F206EC3A36F20656E636F6E7472B4
:1003900061646F210053656E736F72205443533252
:1003A000206EC3A36F20656E636F6E747261646F9D
:1003B000210053656E736F722054435331206EC316
:1003C000A36F20656E636F6E747261646F21006C41
:1003D000696761646F00051011241FBECFEFCDBFA8
:1003E000DFE3DEBF29E3AAE0B8E301C01D92AC3B26
:1003F000B207E1F718E3A0E0B8E3EDE4FBE202C0E6
:1004000005900D92AA30B107D9F711E0CCEED1E0FA
:1004100004C02197FE010E942514CB3ED107C9F7E5
:100420000E9437100C945015EBCE0F931F93CF936F
:10043000DF9300D0CDB7DEB79C01DC01BC5E8B0141
:10044000AB01485F5F4F8F5F90E0821B930B2C9155
:1004500029839C012A0F3B1FF90120812A832981CE
:100460003A81F801219331938F011296E417F50731
:1004700071F781E00F900F90DF91CF911F910F9155
:100480000895AF92BF92CF92DF92EF92FF920F93B7
:100490001F93CF93DF936C017B018B01040F151F1A
:1004A000EB015E01AE18BF08C017D10759F0699182
:1004B000D601ED91FC910190F081E02DC6010995E6
:1004C000892B79F7C501DF91CF911F910F91FF9093
:1004D000EF90DF90CF90BF90AF900895FC015785CB
:1004E0004089252F30E0842F90E0821B930B541716
:1004F00010F0CF96089501970895FC0195858685A3
:10050000981761F0A685AE0FBF2FB11D51968C9143
:1005100096859F5F9F73968790E008958FEF9FEF7A
:100520000895FC0195858685981731F08685E80F3A
:10053000F11D818990E008958FEF9FEF0895FC01F0
:1005400095852685892F90E0805C9F4F821B9109BD
:100550008F7399270895DC010FB607FE04C08091C0
:1005600011018823B9F01896ED91FC9119978481B7
:1005700085FF10C01F969C911F9750968C919813E1
:1005800004C085818F7D85830895EAECF8E3E894C3
:100590000C94690F08950F931F93CF93DF93EC0191
:1005A0008C8581608C879F85888998130BC0E8852E
:1005B000F985848185FF06C08C8581FD0DC080E4AE
:1005C000848312C0062F1F851F5F1F7388898113C4
:1005D00015C0CE01C0DFFACF85818F77806490E4AB
:1005E0009483E885F9858583E885F985628381E0D0
:1005F00090E0DF91CF911F910F910895EF85EC0F5F
:10060000FD2FF11DEF5AFF4F00831F878C85E88572
:10061000F98581FF09C085818F77806690E4948396
:10062000E885F9858583E3CF85818062FBCF0F93D1
:100630001F93CF93DF938C01D0E0C0E0F801EC0F63
:10064000FD1F6491662339F08AEC98E3A4DF892BBF
:1006500011F02196F3CFCE01DF91CF911F910F9131
:100660000895CF93DF93EC018C85882359F0E885BA
:10067000F985858185FD03C0848186FD03C0CE0197
:100680006ADFF5CFDF91CF91089500C0000082307E
:10069000910540F0880F991F0297019700C000C094
:1006A00000C0D9F708959FB7F89488E08093840A32
:1006B00080918E0A81FFFCCF80918D0AE091A20A81
:1006C000F091A30A20913438309135384091363872
:1006D000509137389FBF80FF07C0E730F10520F405
:1006E0002F5F3F4F4F4F5F4FBF0176956795CF010B
:1006F000860F911DE62FE695E695762F72957F7011
:10070000E71BFF0B67FD3196E80FF91FA0E3B3E08D
:100710000E94CE136E0F7F1F811D911D0895CF92F1
:10072000DF92EF92FF92CF93DF936B017C01BBDFEF
:10073000EB01B9DF6C1B7D0B683E7340A0F0C11468
:10074000D104E104F10439F4DF91CF91FF90EF90EF
:10075000DF90CF90089581E0C81AD108E108F10830
:10076000C851DC4FE6CFC114D104E104F10409F70C
:10077000EBCF2FB7F8946091383870913938809169
:100780003A3890913B382FBF089581E08093080656
:1007900080910B0680FFFCCF80911006909111068E
:1007A00021E020930B0608954F925F926F927F9203
:1007B0008F929F92AF92BF92CF92DF92EF92FF9271
:1007C0000F931F93CF93DF93EC018A859B85681B62
:1007D000790B61308AEF780708F09AC06A877B87C7
:1007E0008C859D85481B590B41308AEF580708F0CE
:1007F00092C04C875D878E859F85281B390B2130E1
:100800008AEF380708F08AC02E873F878889998940
:10081000081B190B01308AEF180708F082C0088BFB
:10082000198B2C853D85AFEFB0E00E94D8132A814B
:100830003B8150E040E00E94E71329012E853F856F
:10084000AFEFB0E00E94D8132C813D8150E040E032
:100850000E94E713490128893989AFEFB0E00E946F
:10086000D8132E813F8150E040E00E94E7136901D8
:100870002A853B85AFEFB0E00E94D81328813981EB
:1008800050E040E00E94E713369527952A873B8782
:10089000569447944C865D86969487948E869F8660
:1008A000D694C794C88AD98A2F3F310529F020F001
:1008B0008FEF90E08A879B878FEF4816510429F0CD
:1008C00020F08FEF90E08C879D878FEF8816910442
:1008D00029F020F08FEF90E08E879F878FEFC8166A
:1008E000D10429F020F08FEF90E0888B998BDF9175
:1008F000CF911F910F91FF90EF90DF90CF90BF901D
:10090000AF909F908F907F906F905F904F900895E1
:100910001A861B8665CF1C861D866DCF1E861F8698
:1009200075CF188A198A7DCFDC015C968C91823153
:1009300088F490E0FC01E651F545E081B0E2EB9FE0
:10094000F0011124FC5F84509545DC018C9181837A
:1009500086830895F0E0E0E08FEFF9CFFC01A081FD
:10096000B0E0BC5EE0E0F0E10FB622812370E9F771
:10097000F8946C936DE964BF63E060830FBE0895E3
:10098000EF92FF921F93CF93DF931F92CDB7DEB705
:10099000182F7B018983FB016081E82FF0E0FC5E6A
:1009A0008081681719F0CE010196D8DF1F5F198387
:1009B000F7016181E12FF0E0FC5E8081681719F09A
:1009C000CE010196CBDFC7010F90DF91CF911F9130
:1009D000FF90EF900895E091C9388091C838E817EA
:1009E00030F4F0E0E857F74C808190E008958FEF05
:1009F0009FEF0895E091C9388091C838E81750F406
:100A000081E08E0F8093C938F0E0E857F74C808181
:100A100090E008958FEF9FEF0895CF92DF92EF92CD
:100A2000FF920F931F93CF93DF936C01EB017B0138
:100A3000E40EF51E10E000E0CE15DF0561F06991CF
:100A4000D601ED91FC910190F081E02DC601099550
:100A5000080F191FF1CFC801DF91CF911F910F919E
:100A6000FF90EF90DF90CF900895E0912A38E03228
:100A700040F021E030E0FC012283338390E080E00D
:100A8000089581E08E0F80932A38F0E0E65FF74CFE
:100A9000608381E090E008958091C8389091C938D2
:100AA000891B990B0895DC011C96ED91FC911D9713
:100AB0001E968C911E9782831C968D919C911D97FA
:100AC00040961F96EC911F97E80FF92FF11D529653
:100AD0008C91882321F080818860808308958081B3
:100AE000877FFBCFFC01A485B585868516968C9300
:100AF000A485B585868511968C930895DC0118969A
:100B0000ED91FC9119971A968C911A9782831896F9
:100B10008D919C91199740961B96EC911B97E80F2D
:100B2000F92FF11D52968C91882321F080818860E5
:100B3000808308958081877FFBCFFC01A085B185EC
:100B4000828516968C93A085B185828511968C93AB
:100B5000089508950F931F93CF93DF93EC01888539
:100B60009985892BD1F49FDD0C811D812E813F81D8
:100B7000DC01CB01801B910BA20BB30B80959095F0
:100B8000A095B0958827B7FD83959927AA27BB27FD
:100B9000DF91CF911F910F910895EBDDE5CF0F937A
:100BA0001F93CF93DF93EC01488359836A837B8340
:100BB00081E090E088879987DCDD088119812A81AE
:100BC0003B81DC01CB01800F911FA21FB31F8C83DF
:100BD0009D83AE83BF83DF91CF911F910F910895C5
:100BE000FF920F931F93CF93DF93CDB7DEB72A9772
:100BF000CDBFDEBF8C01F62EFC014089518970E02B
:100C000060E021E030E0CE010196C9DFF801138AEF
:100C1000C80168DFC80191DFFF2091F0BE016F5F5E
:100C20007F4FC80114D081110DC082E090E02A9658
:100C3000CDBFDEBFDF91CF911F910F91FF9008953F
:100C4000C80131DFC8015ADF90E080E0F0CF0F9398
:100C50001F93CF93DF93EC018B0125DFEC85FD859E
:100C600080859E85892369F4C80174DF8823B1F3E8
:100C700060E0CE01B5DF80E0DF91CF911F910F9151
:100C8000089581E0F9CFEF92FF920F931F93CF93D6
:100C9000DF93CDB7DEB72A97CDBFDEBF8C01E62E3E
:100CA000DC0150964D915C9170E060E021E030E015
:100CB000CE01019674DF98E0F92EC80113DFC80158
:100CC000E7FE16C01BDFBE016F5F7F4FC801BFDFAD
:100CD000811110C082E0E82EF12CC7012A96CDBF09
:100CE000DEBFDF91CF911F910F91FF90EF9008959C
:100CF00024DFE9CFEE0CCE0101962CDF882321F012
:100D000061E0C8016DDFE6CFFA94F110D6CFC801DB
:100D1000E9DEC801F3DEBE016F5F7F4FC80197DFD8
:100D20008823C1F2D8011896ED91FC91199790850E
:100D30001A968C91982381E009F480E0E82EC8018E
:100D4000D1DECBCFFF920F931F93CF93DF93CDB71D
:100D5000DEB72A97CDBFDEBF8C01F62EFC0140899D
:100D6000518970E060E021E030E0CE01019617DFAC
:100D7000C801B8DEC801C2DEBE016F5F7F4FC80187
:100D800066DF882371F0C801D8DE6F2DC8017BDFD4
:100D90002A96CDBFDEBFDF91CF911F910F91FF90BB
:100DA000089582E090E0F4CF0F931F93CF93DF93E9
:100DB000EC0100912B3810E0000F111F8B89882364
:100DC00079F0602FCE01BEDF8130910519F110E07E
:100DD000029771F484E0DF91CF911F910F910895F4
:100DE000CE01ABDECE017EDE602FCE014CDFECCF3C
:100DF00080912A38181780F4E12FF0E0E65FF74C75
:100E00006081CE0140DF8130910541F0029711F3FE
:100E10001F5FEECF82E0DFCF80E0DDCF83E0DBCF6E
:100E2000DF92EF92FF920F931F93CF93DF9300D047
:100E3000CDB7DEB78C01606869834A83DC015696C2
:100E40008D919C9129E220932B3810922A38DC0155
:100E5000ED91FC910280F381E02D42E050E0BE0173
:100E60006F5F7F4F0995F801E688F788C7019CDF1F
:100E7000D82E61E0C701B4DED8011996DC920F903C
:100E80000F90DF91CF911F910F91FF90EF90DF9026
:100E9000089543E060E0C4CF41E060E0C1CFCF936C
:100EA000DF93EC01F9DF63E070E080E090E037DC95
:100EB000CE01EFDF65E070E080E090E0DF91CF9160
:100EC0002ECC9F92AF92BF92CF92DF92EF92FF9281
:100ED0000F931F93CF93DF93CDB7DEB72A97CDBF84
:100EE000DEBF8C01962E1092C9381092C838DC01F2
:100EF00053968C91882309F46BC063E5C80122DF07
:100F0000892B09F076C098E8E92E98E3F92ED12CC8
:100F1000E92DE150FF0B5F01D7011C92F8014089D8
:100F2000518970E060E021E030E0CE01019637DECB
:100F300088E0C82ED7018C91880F8C93C801D2DD30
:100F4000C801DCDDBE016F5F7F4FC80180DE8823F2
:100F500009F44FC0D8011C96ED91FC911D97808536
:100F60001E969C911E97892309F43AC01896ED911C
:100F7000FC91199780851A969C91892321F0F7019D
:100F8000808181608083CA94C110D4CFC801AADD5A
:100F9000C70188589843A816B90609F43EC0C8018D
:100FA000CCDDBE016F5F7F4FC80151DE882309F1A0
:100FB000D8011C96ED91FC911D9780851E969C9101
:100FC000892371F5CE010196C5DD882389F30EC012
:100FD000C801B3DDC80186DD63E5C80154DE90CFEA
:100FE000CE010196B7DD882309F4B4CF61E0C801D2
:100FF000F7DD61E0C801F4DD8091C8382A96CDBFE5
:10100000DEBFDF91CF911F910F91FF90EF90DF90A6
:10101000CF90BF90AF909F900895C8016FDDC1CF72
:10102000C80160DD8091C8388F5F8093C838D39441
:10103000BFEFEB1AFB0A9D106FCFDBCFCF92DF9291
:10104000EF92FF920F931F93CF93DF93CDB7DEB74D
:101050002897CDBFDEBF8C01DC0156968D919C9107
:1010600029E220932B3810922A38DC01ED91FC9173
:101070000190F081E02D64E90995F801E688F78890
:10108000C70192DED82E61E0C701AADDD80119960A
:10109000DC92199768E056968D919C9112DFFE01C3
:1010A00031967F016E01F9E0CF0ED11CD801569622
:1010B0008D919C91DC01ED91FC910284F385E02DF2
:1010C0000995F70181937F01EC15FD0579F7898179
:1010D0009A81D80150968D939C9351978B819C81D6
:1010E0001A968D939C931B978D819E811C968D9350
:1010F0009C931D978F8198851E968D939C931F9727
:1011000038DBF801628B738B848B958B2896CDBF6F
:10111000DEBFDF91CF911F910F91FF90EF90DF9095
:10112000CF900895FF920F931F93CF93DF93EC011D
:101130008E899F8929E220932B3810922A38606883
:10114000DC01ED91FC910190F081E02D09950E8973
:101150001F89C80129DEF82E61E0C80141DDF9864A
:1011600061E08E899F89ADDE8E899F89DC01ED91DA
:10117000FC910284F385E02D0995DF91CF911F91B9
:101180000F91FF900895CF93DF93EC0160E0CADFE9
:10119000482F4C7F60E0CE01DF91CF9141CE90E0AF
:1011A00080E00895FC0101900020E9F73197AF013C
:1011B000481B590BBC018AEC98E363C9CF93DF93BA
:1011C00036DAEC0188E29BEAEDDF8C0F9D1FDF91A0
:1011D000CF910895EF92FF920F931F93CF93DF93D8
:1011E000EC010E891F898AE0E82EF12CD801509677
:1011F000ED92FC9251971896ED91FC9119971A96E1
:101200008C911A9786831C96ED91FC911D971E96E2
:101210008C918683C80172DCC80145DCEE89FF89A8
:10122000E08AF18A62E1CE017DDF8D3409F042C0AF
:1012300081E0888F1B8D412F61E0CE01F1DD1B8F96
:10124000198D0A8D412F6FE0CE01EADD198F0A8FCB
:10125000CE0125DE2E8D2150330B49E0429FC00187
:10126000439F900D112490E5980FDE019E0180E0D0
:10127000E92FE81BF0E0FC5E4081F90141939F01FA
:101280008150873FA9F79E01285F3F4F80E09D91E5
:1012900089272A173B07D9F79885891324C082ED3F
:1012A00092E08CDF81E0DF91CF911F910F91FF9051
:1012B000EF900895843409F4BBCF803109F4B8CF9E
:1012C00063E070E080E090E02ADA62E1CE012ADF9C
:1012D0008D3409F4ADCF843409F4AACF803109F4F8
:1012E000A7CF80E0E0CF80E092E0888399838A8373
:1012F0009B838C839D8380E094E08E839F838CE727
:1013000092E0CFCF8F929F92AF92BF920F931F9395
:10131000CF93DF93CDB7DEB7A197CDBFDEBF19A2C4
:10132000423008F44AE08E010F5D1F4F842E912C4D
:10133000B12CA12CA50194010E94E713E62FB9015D
:10134000CA01EA30D4F4E05DD801EE938D01232B7D
:10135000242B252B79F790E080E0109711F0CD0138
:1013600021DFA196CDBFDEBFDF91CF911F910F91FD
:10137000BF90AF909F908F900895E95CE5CFCF9399
:10138000DF93823108F047C090E0EC01C450D545AE
:1013900028812F3F09F43FC0AC0146515545DA0181
:1013A000EC91B0E2EB9FF0011124FC5F611136C0BB
:1013B000268330812323A1F49C0128523545D9018D
:1013C0002C91309769F1283058F57096E20FF11D95
:1013D0003FB7F8942081611126C0277F20833FBF4B
:1013E0008A539545FC0190819923A9F08881903416
:1013F00009F19038E1F0903171F4DA019C9191306B
:10140000A1F4853010F0880F82959091010A8095A3
:1014100089238093010ADF91CF9108952583C9CF55
:10142000F0E0E0E0D5CF2860D9CF880FEECF109262
:10143000A006F1CF20E4823009F420E89091920ACE
:10144000922349F36FB7F8949091800A9E7F90930E
:10145000800A4091920A30E02095309550E0242394
:10146000352398ED94BF2093920A90918E0A90FFB5
:10147000FCCF9091800A91609093800A813039F47A
:10148000809150048F77809350046FBFC4CF8091B8
:1014900051048F7780935104F8CFCF93CBE0C150A4
:1014A00089F064E670E080E090E039D961E089E09D
:1014B00066DF64E670E080E090E031D960E089E0CA
:1014C0005EDFEDCFCF9108952F923F924F925F92C2
:1014D0006F927F928F929F92AF92BF92CF92DF9244
:1014E000EF92FF920F931F93CF93DF93CDB7DEB7A9
:1014F0002A97CDBFDEBF72ECA72E7AEAB72E8E01F7
:101500000F5F1F4F68017501EFE19E2E9092060656
:101510004DE04A95F1F7000038D987EC90E001974B
:10152000F1F700C0000031D9809100389091013866
:10153000ACD82BD9D7018D917D018093060625D992
:101540008091003890910138A0D81FD9F60181937D
:1015500091936F01F6ECEF16FAEAFF06B9F63EEB4F
:10156000E32E3AEAF32E4CE2642E48E3742E52EC5A
:10157000852E5AEA952E63016FE1462E40920606AB
:101580004DE04A95F1F7000000D987EC90E0019713
:10159000F1F700C00000F9D8D7015D907D0161E04E
:1015A000852DEDDE80910038909101386ED8EDD810
:1015B000F50181915F0180930606E7D8809100389C
:1015C0009091013862D8E1D8D6018D939D936D0139
:1015D00060E0852DD4DE8E149F0481F686E5A82E6A
:1015E00088E3B82E9EE5C92E98E3D92EECE6F8E301
:1015F000E987FA877801F8E0EF0EF11C88248A94D5
:1016000023E0922EB801D3012D913D913D01F801C7
:1016100080819181A401481B590B57FD50C0408324
:1016200051830E5F1F4FD501ED91FD915D01D601F4
:101630008D919D916D011C01512C412CDB014D912F
:101640005C91241B350B2E173F0708F49F0182176E
:10165000930708F49C01032E000C440B550B221930
:10166000330944095509AFEFB0E00E94CE139F0142
:1016700050E040E022193309440955090E94091439
:10168000E985FA852193E987FA87E016F10609F0E2
:10169000B9CF2A96CDBFDEBFDF91CF911F910F91B9
:1016A000FF90EF90DF90CF90BF90AF909F908F9082
:1016B0007F906F905F904F903F902F900895108291
:1016C0001182AFCFCF92DF92EF92FF921F93CF9311
:1016D000DF93CDB7DEB72897CDBFDEBFCE01019631
:1016E0007C0188E0D7011D928A95E9F7EDDEECDEFA
:1016F0000E9453031AE06E01B9E0CB0ED11CE4DE68
:10170000F7014CE258E321913191DA018D919D91DD
:10171000AD012817390730F49F0122503109D90152
:101720008D939C93CE16DF0671F70E9453030E949F
:101730005303115021F789819A81809356389093F1
:1017400057388B819C8180935838909359388D817C
:101750009E8180935A3890935B388F8198858093CF
:101760005C3890935D382896CDBFDEBFDF91CF9176
:101770001F91FF90EF90DF90CF900895CF92DF926E
:10178000EF92FF921F93CF93DF93CDB7DEB72A97E7
:10179000CDBFDEBF88E0E4EAFAEADE0111960190EF
:1017A0000D928A95E1F790DE8FDE0E9453031AE0D6
:1017B0007E0189E0E80EF11C87DEFE0131964CE2E5
:1017C00058E321913191DA018D919D91AD018217FC
:1017D000930730F49F0122503109D9018D939C93D6
:1017E000EE15FF0571F70E9453030E945303115039
:1017F00019F789819A8180935E3890935F388B8145
:101800009C8180936038909361388D819E81809314
:101810006238909363388F81988580936438909371
:1018200065388EE5C82E88E3D82E1AE0F60181913E
:1018300091916F0189879A87B701812FA1D81E5F87
:101840001231A1F72ADE2A96CDBFDEBFDF91CF91FC
:101850001F91FF90EF90DF90CF9008958231F0F4C8
:1018600090E0FC01E450F54520812F3FB9F0FC01E8
:10187000E651F545E08130E2E39FF0011124FC5F81
:10188000613069F4218388529545DC018C91E80F21
:10189000F11D8089613029F08860808B0895228352
:1018A000F2CF877FFACF2F923F924F925F926F9243
:1018B0007F928F929F92AF92BF92CF92DF92EF92E0
:1018C000FF920F931F93CF93DF93EC01E8DACE01E1
:1018D000B5DBEA84FB840C851D858E849F84488853
:1018E0005988CE0150DCCE01D7DA63E070E080E0A9
:1018F00090E00E948F03CE01CCDACE0115D865E0CE
:1019000070E080E090E00E948F03CE0197DBAA8414
:10191000BB84CC84DD846E847F8428883988CE01A2
:1019200032DCEA18FB0881E0E8168AEFF80608F0D6
:101930005CC0EA86FB860C191D0901308AEF180786
:1019400008F056C00C871D878618970881E0881616
:101950008AEF980608F04FC08E869F86421853087B
:1019600081E048168AEF580608F048C0488A598A2C
:1019700080E093E00E9417036A857B8590E080E019
:101980004AE0C0DC8CEF92E00E9417036C857D85F5
:1019900090E080E04AE0B6DC88EF92E00E94170316
:1019A0006E857F8590E080E04AE0ACDC84EF92E0D9
:1019B0000E9417036889798990E080E04AE0A2DC00
:1019C00088E29BEADF91CF911F910F91FF90EF90FA
:1019D000DF90CF90BF90AF909F908F907F906F904F
:1019E0005F904F903F902F90DDCB1A861B86A3CF40
:1019F0001C861D86A9CF1E861F86B0CF188A198A1D
:101A0000B7CFCF92DF92EF92FF920F931F93CF93B6
:101A1000DF93CDB7DEB72A97CDBFDEBF8C01DC01E7
:101A200058968C9181110FC08DE193E0C7DB2A9607
:101A3000CDBFDEBFDF91CF911F910F91FF90EF904F
:101A4000DF90CF900895C8012EDFF801828593853D
:101A500089839A83848595858B839C8386859785E6
:101A60008D839E83808991898F8398871986CE0183
:101A700001966C019E01275F3F4FFC019191898582
:101A800089278987E217F307C9F7D8015E962C9159
:101A90002150330B49E0429FC001439F900D112418
:101AA00090E5E92EE80EF12CEE2DEF19EA87D6012C
:101AB0006D916D01F0E0FC5E8081681721F0CE0130
:101AC0000A960E94AE04FA94B7EFFB12EDCF83E5BD
:101AD00093E074DBC8017EDBAACFCF92DF92EF9256
:101AE000FF920F931F93CF93DF9300D0CDB7DEB754
:101AF0008CE291E08093003890930138E3DD07E2B7
:101B000011E00093003810930138DCDD96E5E92EF2
:101B100098E3F92EF70180E021913191293C3105BC
:101B200008F08F5F98E3EE35F907B1F7843029F0BC
:101B30000550110931F705E010E0009300381093CB
:101B4000013886E5C82E88E3D82E14E1F60181918C
:101B500091916F0189839A83BE016F5F7F4F812FBF
:101B60000E94C0041E5F1C3189F78BE29BEA1ADBDE
:101B7000609100387091013890E080E04AE0C2DB6B
:101B800088E29BEA0FDB8BE39BEA0CDBF7016191B8
:101B900071917F0190E080E04AE0B4DB89E39BEA49
:101BA00001DBFEE5EF16F8E3FF0681F788E29BEA2A
:101BB000F9DA60E078E383E00E94C004809168383D
:101BC000882319F089E999E31CDF8091673888231D
:101BD00019F08AE799E315DF80916638882319F0B8
:101BE0008BE599E30EDF59DC0F900F90DF91CF91D9
:101BF0001F910F91FF90EF90DF90CF9008958F92FB
:101C00009F92AF92BF92CF92DF92EF92FF920F938B
:101C10001F93CF93DF93EC0146DE2A853B85EC844E
:101C2000FD840E851F85C888D98821308AEF380742
:101C300010F01A861B86AFEFB0E0BAD52881398143
:101C400050E040E0C4D549012A873B879701AFEFB8
:101C5000B0E0AED52A813B8150E040E0B8D57901B3
:101C60002C873D879801AFEFB0E0A2D52C813D8154
:101C700050E040E0ACD589012E873F879601AFEF59
:101C8000B0E096D52E813F8150E040E0A0D5C9015B
:101C9000288B398B2FEF8216910429F020F02FEF3B
:101CA00030E02A873B872FEFE216F10429F020F07D
:101CB0002FEF30E02C873D870F3F110529F020F0F2
:101CC0002FEF30E02E873F878F3F910529F020F0DE
:101CD0008FEF90E0888B998BDF91CF911F910F91BF
:101CE000FF90EF90DF90CF90BF90AF909F908F903C
:101CF00008950F931F93CF93DF93EC010E94B903D4
:101D00000A891B892C893D89601B710B820B930BFF
:101D1000653171058105910510F0CE0170DF88896C
:101D20009989DF91CF911F910F9108950F931F9380
:101D3000CF93DF93EC010E94B9030A891B892C8998
:101D40003D89601B710B820B930B65317105810519
:101D5000910510F0CE0153DF8E859F85DF91CF91E5
:101D60001F910F9108950F931F93CF93DF93EC0171
:101D70000E94B9030A891B892C893D89601B710B5C
:101D8000820B930B653171058105910510F0CE0131
:101D900036DF8C859D85DF91CF911F910F9108953E
:101DA0000F931F93CF93DF93EC010E94B9030A892D
:101DB0001B892C893D89601B710B820B930B65314C
:101DC00071058105910510F0CE0119DF8A859B858B
:101DD000DF91CF911F910F9108950F931F93CF9390
:101DE000DF938C01D62FC42FDC015C966C935C973B
:101DF0005D964C9384E190E02ED5FC011282138213
:101E000088EE93E0A0E0B0E084839583A683B78357
:101E100080EB9AEA8083918384E690E0808B918BBB
:101E200081E0828B138A6D2F70E0DB01A651B545EE
:101E30008C91B0E28B9FC00111249C5F80879187B9
:101E400064507545DB018C9182871386869521F05D
:101E500093859F5F9387FACF4C2F50E0DA01A6510C
:101E6000B5458C91B0E28B9FC00111249C5F8487A3
:101E7000958744505545DA018C918687178686955B
:101E800021F097859F5F9787FACFD8015696ED93FB
:101E9000FC935797C801DF91CF911F910F919AC979
:101EA000EF93FF93F898EAECF8E30BC0EF93FF93FE
:101EB000F898EAECF8E334C0EF93FF93EAECF8E328
:101EC0005CC02F932FB72F938F939F93AF93BF93A4
:101ED0006894CF93DF9320E0C085D8E09089DF013C
:101EE000A90FB21FAF5ABF4F8C9120E42C838A8375
:101EF0009F5F9F738D812785291302C08F7D8D83FE
:101F0000908BDF91CF9116F00C94CA02BF91AF91E4
:101F10009F918F912F912FBF2F91FF91EF91189546
:101F20002F932FB72F933F938F939F93CF93DF934D
:101F3000C085D8E0898198818674880F3485382BD4
:101F400082FD0DC0C58581E08C0F8F732685281713
:101F500091F0CE0FDF2F20E0D21F998B8587348739
:101F6000DF91CF919F918F913F912F912FBF2F9113
:101F7000FF91EF9118953064F2CF8F938FB78F93C5
:101F80009F93CF93DF93C085D8E09D8188818C811A
:101F900087FDFCCF9F7B90689D83DF91CF919F91C0
:101FA0008F918FBF8F91FF91EF9118958F9381E063
:101FB00080938D0A8FB78F93EF93FF93E4E3F8E359
:101FC0009F9368948FEF0DC0E89484819581805D24
:101FD0009C4F84839583885E934080F084839583AF
:101FE0008FEF9081981B919390819F4F9193908157
:101FF0009F4F919390819F4F919336F39F91FF91C3
:10200000EF918F918FBF8F911895EAECF8E31282D0
:10201000138288EE93E0A0E0B0E084839583A683EA
:10202000B7838AE19BEA8083918380E098E0808790
:10203000918712861386E9E9F9E3108E2FEF238F3B
:1020400082E090E0818F928F31E0368FEAE7F9E30A
:10205000108E238F818F928F32E0368FEBE5F9E37C
:10206000108E238F818F928F83E0868F089588ED65
:1020700090E084BF90936100E0E0F6E083E5828326
:102080008DE0858380E28383C1E0C08310920202E9
:10209000C093030A8EEF8093260A8093270A8BE071
:1020A0008093000AE0E8FAE08DEF91E086A797A719
:1020B000118280E88283C48781E18083789461E023
:1020C00089E0CCDB61E089E05AD961E08AE0C6DBD7
:1020D00061E088E0C3DB61E080E1C0DB61E08DE0CE
:1020E000BDDB60E08AE04BD960E088E048D960E081
:1020F00080E145D960E08DE042D9C093D538809128
:10210000D63880FF12C08AEC98E30E943103E09138
:10211000D238F091D3381682158280EC8483809176
:10212000D8388093D7381092D6381FB7F894E091FA
:10213000D238F091D338168283E0878386EB92E021
:1021400080879187148680E8858380EC86839091D0
:10215000D538C091D43880910102992309F4B1C0D7
:10216000816080930102C90FDD27DD1FCC0FDD1FC9
:10217000CC0FDD1FC25FD44561E088816FDB62E078
:1021800089816CDB1FBF8FEC93E018D882E58093C8
:102190000206109200068FE1809306062DE02A9534
:1021A000F1F7000080910006816080930006ECE664
:1021B000F8E3119288E3EC37F807D9F7809103141C
:1021C0008093003880910414809301388091003806
:1021D000909101388D32914008F075C06EE578E33A
:1021E0008AE090E00E94150266E578E384E190E0E1
:1021F0000E9415026EE478E38EE190E00E941502E1
:1022000066E478E386E290E00E9415026EE378E3EC
:102210008EE290E00E9415028091543890915538DA
:10222000880F991F809354389093553880914C387B
:1022300090914D38880F991F80934C3890934D386A
:102240008091443890914538880F991F8093443885
:102250009093453845E064E089E999E3BEDD882341
:10226000C9F181E08093683847E066E08AE799E346
:10227000B4DD8823A1F181E0809367384BE06CE006
:102280008BE599E3AADD882379F181E080936638B4
:10229000C4E0D1E0C15069F1D0936C3864E670E0DD
:1022A00080E090E00E948F0361E089E068D864E6F6
:1022B00070E080E090E00E948F0360E089E05FD8EA
:1022C000E9CF8E7F4ECF8CE291E0809300389093DF
:1022D000013884CF82EB93E00E94DE08C5CF85E908
:1022E00093E00E94DE08CACF81E793E00E94DE08F7
:1022F000CFCF0E94B903C1E08AEC98E30E949F020D
:102300001816190674F58AEC98E30E949F021816B5
:1023100019063CF48AEC98E30E947D02809385388C
:10232000F2CFD09185388FE98D0F833028F7C09395
:1023300084380E94B9036093803870938138809309
:1023400082389093833880910238D81771F0D093F7
:10235000023810927C3810927D3810927E3810929C
:102360007F38809184388823B1F061E089E007D814
:1023700080910238813609F0D0C140E150E06CE62E
:1023800078E38AEC98E30E9441021092843860E07E
:1023900089E00E94BF090E94B90300918038109122
:1023A00081382091823830918338601B710B820B09
:1023B000930B603375478105910508F0E2C10E94D7
:1023C000B90300917C3810917D3820917E3830918E
:1023D0007F38601B710B820B930B65317105810592
:1023E000910508F489CF809169388F5F80936938AF
:1023F0000E94B90360937C3870937D3880937E3857
:1024000090937F3880910238813609F0A2C10E94F2
:1024100053036B017C0180916838882321F089E99E
:1024200099E30E944C0780916738882321F08AE75E
:1024300099E30E944C0780916638882321F08BE550
:1024400099E30E944C070E9453036C197D098E0981
:102450009F096C3F784081059105A8F38091683809
:10246000882321F089E999E30E9449078091673820
:10247000882321F08AE799E30E9449078091663812
:10248000882321F08BE599E30E9449070E945303BA
:102490006B017C0119D80E9453036C197D098E09C8
:1024A0009F09603A7F4081059105A8F380916838C3
:1024B000882321F089E999E30E941E0880916738FA
:1024C000882321F08AE799E30E941E0880916638EC
:1024D000882321F08BE599E30E941E0880916838DB
:1024E000882361F089E999E30E944C0789E999E31F
:1024F0000E94490789E999E30E9494048091673812
:10250000882361F08AE799E30E944C078AE799E300
:102510000E9449078AE799E30E94940480916638F3
:10252000882361F08BE599E30E944C078BE599E3E2
:102530000E9449078BE599E30E9494040E9453038B
:102540006B017C010E9453036C197D098E099F0960
:10255000603A7F4081059105A8F38091683888230F
:1025600079F189E999E31CDC7C0189E999E3FBDBDA
:102570006C0189E999E3DADB5C0189E999E3B9DB6C
:102580008C0189E999E30E941E089501A601B70113
:1025900089E999E30E94D40389E999E301DC8093F6
:1025A000703889E999E3DFDB8093713889E999E331
:1025B000BDDB8093723889E999E39BDB80937338A4
:1025C00080916638882379F18BE599E3E9DB7C011A
:1025D0008BE599E3C8DB6C018BE599E3A7DB5C0134
:1025E0008BE599E386DB8C018BE599E30E941E085D
:1025F0009501A601B7018BE599E30E94D4038BE511
:1026000099E3CEDB809374388BE599E3ACDB809360
:1026100075388BE599E38ADB809376388BE599E30F
:1026200068DB8093773880916738882379F18AE76F
:1026300099E3B6DB7C018AE799E395DB6C018AE7D5
:1026400099E374DB5C018AE799E353DB8C018AE749
:1026500099E30E941E089501A601B7018AE799E354
:102660000E94D4038AE799E39BDB809378388AE75A
:1026700099E379DB809379388AE799E357DB809394
:102680007A388AE799E335DB80937B388091683824
:10269000882331F040E060E089E999E30E94100767
:1026A00080916738882331F040E060E08AE799E361
:1026B0000E94100780916638882331F040E060E086
:1026C0008BE599E30E94100780916838811108C05A
:1026D00010927338109272381092713810927038CC
:1026E00080916638811108C0109277381092763840
:1026F000109275381092743880916738811108C033
:1027000010927B3810927A3810927938109278387B
:1027100010926B3810926A38EFCD823679F480913E
:102720006B38811103C0D9D9C0936B38C0936C3812
:1027300061E08AEC98E30E94CB0227CE833609F051
:1027400024CE80916A388111F1CF18D8C0936A38AD
:10275000EDCF823659F480916B38811104C0BDD918
:10276000C0936B38C9CDC0936C38C6CD833609F0A1
:10277000C3CD80916A388111F6CF00D8C0936A38F2
:10278000BBCD89E999E30E9494048AE799E30E940A
:1027900094048BE599E30E949404AECD09D0A59FE3
:1027A000900DB49F900DA49F800D911D112408954C
:1027B000A29FB001B39FC001A39F700D811D112482
:1027C000911DB29F700D811D1124911D0895A1E2EC
:1027D0001A2EAA1BBB1BFD010DC0AA1FBB1FEE1F9B
:1027E000FF1FA217B307E407F50720F0A21BB30BE6
:1027F000E40BF50B661F771F881F991F1A9469F762
:1028000060957095809590959B01AC01BD01CF01BD
:102810000895052E97FB16F400940FD057FD05D0B0
:10282000D6DF07FC02D046F408C05095409530959D
:1028300021953F4F4F4F5F4F08959095809570952C
:1028400061957F4F8F4F9F4F0895EE0FFF1F0590AB
:10285000F491E02D09940F931F93CF93DF9382306F
:10286000910510F482E090E0E091BA39F091BB3923
:1028700030E020E0B0E0A0E0309799F42115310578
:1028800009F44AC0281B390B24303105D8F58A8158
:102890009B816115710589F1FB0182839383FE01A0
:1028A00011C0408151810281138148175907E0F01E
:1028B0004817590799F4109761F012960C931297E4
:1028C00013961C933296CF01DF91CF911F910F91F8
:1028D00008950093BA391093BB39F4CF211531050F
:1028E00051F04217530738F0A901DB019A01BD01ED
:1028F000DF01F801C1CFEF01F9CF8093BA3990938E
:10290000BB39CDCFFE01E20FF31F8193919322508B
:10291000310928833983D7CF2091B8393091B9391B
:10292000232B41F420910538309106382093B83993
:102930003093B9392091033830910438211531058D
:1029400041F42DB73EB74091073850910838241B09
:10295000350BE091B839F091B939E217F307A0F4DB
:102960002E1B3F0B2817390778F0AC014E5F5F4FE5
:102970002417350748F04E0F5F1F4093B839509326
:10298000B939819391939FCFF0E0E0E09CCFCF9352
:10299000DF930097E9F0FC01329712821382A09135
:1029A000BA39B091BB39ED0130E020E01097A1F4C5
:1029B00020813181820F931F2091B8393091B9392C
:1029C0002817390709F061C0E093B839F093B93995
:1029D000DF91CF910895EA01CE17DF07E8F54A812C
:1029E0005B819E0141155105B1F7E901EA83FB8343
:1029F00049915991C40FD51FEC17FD0761F48081EF
:102A000091810296840F951FE901888399838281C1
:102A100093818A839B83F0E0E0E012968D919C91F4
:102A200013970097B9F52D913C911197CD0102961E
:102A3000820F931F2091B8393091B939281739077F
:102A400039F6309751F51092BA391092BB39A093EC
:102A5000B839B093B939BCCFC283D3834081518197
:102A6000840F951FC817D90761F44E5F5F4F8881A7
:102A70009981480F591F408351838A819B818283AA
:102A800093832115310509F0B0CFE093BA39F09363
:102A9000BB399ECFFD01DC01C0CF12821382D7CF9C
:042AA000F894FFCFD8
:102AA400D007D007D007D0070000000035050D057A
:102AB400CF08A9054C05FA04EB040A08100D070613
:102AC40005041010800000000010101040400000A9
:102AD40000001000040506070504030201000001BC
:102AE40002030102030000000000010101010101D1
:102AF400020202020000000010204080201008049E
:102B040002010102040802040801070608090E0F65
:102B1400100000000000CB0241026E0231039F024C
:102B24007D0291020D0A0054656D706F4C6564411D
:102B34006365736F3A200063616C696272616361FB
:092B44006F507265746F3A2000B5
:0A2B4D009600610000BC3980000012
:0400000300000200F7
:00000001FF
