:10020000E9C000000FC100000DC100000BC10000DB
:1002100009C1000007C1000005C1000003C10000C2
:1002200001C10000FFC00000FDC00000FBC00000D5
:10023000F9C00000F7C00000F5C000000C946F1476
:10024000F1C00000EFC00000EDC00000EBC00000F6
:10025000E9C00000E7C00000E5C00000E3C0000006
:10026000E1C00000DFC00000DDC000000C94EF130F
:100270000C94E9130C94F513D5C000004E656E681C
:10028000756D612063616C69627261C3A7C3A36FFE
:100290002076C3A16C69646120656E636F6E7472B1
:1002A000616461206E6120454550524F4D2C207590
:1002B00073616E646F2063616C69627261C3A7C30E
:1002C000A36F2070616472616F2073656E736F72CB
:1002D0002E0043616C69627261C3A7C3A36F206380
:1002E00061727265676164612064612045455052A6
:1002F0004F4D2E007265746F726E6F20646F2069AF
:10030000326320636F6D206572726F3A2000204364
:100310003D0020423D0020473D0056616C6F7265F4
:10032000732073656D2063616C69627261C3A7C3DA
:10033000A36F3A20523D0053656E736F72206EC3F7
:10034000A36F20696E696369616C697A61646F2E5D
:10035000204EC3A36F20C3A920706F7373C3AD7603
:10036000656C2063616C69627261722E0053656E08
:10037000736F722054435320646F206D65696F2042
:100380006EC3A36F20656E636F6E747261646F21BC
:100390000053656E736F722054435332206EC3A3B3
:1003A0006F20656E636F6E747261646F21005365B8
:1003B0006E736F722054435331206EC3A36F206558
:1003C0006E636F6E747261646F21006C6967616443
:1003D0006F009E1411241FBECFEFCDBFDFE3DEBF41
:1003E00029E3AAE0B8E301C01D92A43AB207E1F7FD
:1003F00018E3A0E0B8E3E9E2F5E302C005900D924E
:10040000AA30B107D9F711E0CAEED1E004C02197B4
:10041000FE010E942419C93ED107C9F70E94D014D9
:100420000C944F1AEDCE0F931F93CF93DF9300D010
:10043000CDB7DEB79C01DC01BC5E8B01AB01485F30
:100440005F4F8F5F90E0821B930B2C9129839C015F
:100450002A0F3B1FF90120812A8329813A81F80163
:10046000219331938F011296E417F50771F781E01C
:100470000F900F90DF91CF911F910F910895AF9240
:10048000BF92CF92DF92EF92FF920F931F93CF9381
:10049000DF936C017B018B01040F151FEB015E01E3
:1004A000AE18BF08C017D10759F06991D601ED9178
:1004B000FC910190F081E02DC6010995892B79F717
:1004C000C501DF91CF911F910F91FF90EF90DF90C9
:1004D000CF90BF90AF900895FC0157854089252F9C
:1004E00030E0842F90E0821B930B541710F0CF96CE
:1004F000089501970895FC0195858685981761F008
:10050000A685AE0FBF2FB11D51968C9196859F5F2A
:100510009F73968790E008958FEF9FEF0895FC01F9
:1005200095858685981731F08685E80FF11D8189BC
:1005300090E008958FEF9FEF0895FC019585268543
:10054000892F90E0805C9F4F821B91098F739927C0
:100550000895DC010FB607FE04C0809111018823C5
:10056000B9F01896ED91FC911997848185FF10C020
:100570001F969C911F9750968C91981304C085816B
:100580008F7D85830895E2EBF8E3E8940C940214E0
:1005900008950F931F93CF93DF93EC018C858160B7
:1005A0008C879F85888998130BC0E885F98584819D
:1005B00085FF06C08C8581FD0DC080E4848312C058
:1005C000062F1F851F5F1F738889811315C0CE01F9
:1005D000C0DFFACF85818F77806490E49483E885CB
:1005E000F9858583E885F985628381E090E0DF9174
:1005F000CF911F910F910895EF85EC0FFD2FF11D05
:10060000EF5AFF4F00831F878C85E885F98581FFAE
:1006100009C085818F77806690E49483E885F985A9
:100620008583E3CF85818062FBCF0F931F93CF93A8
:10063000DF938C01D0E0C0E0F801EC0FFD1F649166
:10064000662339F082EB98E3A4DF892B11F0219621
:10065000F3CFCE01DF91CF911F910F910895CF93EA
:10066000DF93EC018C85882359F0E885F985858135
:1006700085FD03C0848186FD03C0CE016ADFF5CF0E
:10068000DF91CF91089500C000008230910540F0C5
:10069000880F991F0297019700C000C000C0D9F7CA
:1006A00008959FB7F89488E08093840A80918E0A19
:1006B00081FFFCCF80918D0AE091A20AF091A30AFC
:1006C0002091343830913538409136385091373850
:1006D0009FBF80FF07C0E730F10520F42F5F3F4F39
:1006E0004F4F5F4FBF0176956795CF01860F911DE4
:1006F000E62FE695E695762F72957F70E71BFF0B48
:1007000067FD3196E80FF91FA0E3B3E00E94EB17F5
:100710006E0F7F1F811D911D0895CF92DF92EF9282
:10072000FF92CF93DF936B017C01BBDFEB01B9DF5D
:100730006C1B7D0B683E7340A0F0C114D104E10432
:10074000F10439F4DF91CF91FF90EF90DF90CF90DB
:10075000089581E0C81AD108E108F108C851DC4FBA
:10076000E6CFC114D104E104F10409F7EBCF2FB7B0
:10077000F894609138387091393880913A38909176
:100780003B382FBF089581E08093080680910B06C7
:1007900080FFFCCF809110069091110621E02093FC
:1007A0000B0608954F925F926F927F928F929F9265
:1007B000AF92BF92CF92DF92EF92FF920F931F936F
:1007C000CF93DF93CDB7DEB72697CDBFDEBF8D8346
:1007D0009E83FC0182859385681B790B6130FAEF5B
:1007E0007F0708F0C2C0ED81FE8162877387ED81CB
:1007F000FE8184859585481B590B4130FAEF5F07D0
:1008000008F0B8C0ED81FE8144875587ED81FE81F7
:1008100086859785281B390B2130FAEF3F0708F0B2
:10082000AEC0ED81FE8126873787ED81FE8180890C
:100830009189081B190B0130FAEF1F0708F0A4C0BB
:10084000ED81FE81008B118BED81FE812285338548
:10085000AFEFB0E00E94F5176B017C012485358570
:100860000E94F5172281338150E040E00E94021976
:100870002901ED81FE8126853785AFEFB0E00E942A
:10088000F5172481358150E040E00E9402194901AA
:10089000ED81FE8120893189AFEFB0E00E94F5172C
:1008A0002681378150E040E00E94021929833A8373
:1008B0004B835C83ED81FE812081318150E040E0FB
:1008C000C701B6010E94021936952795ED81FE8178
:1008D0002287338756944794448655869694879406
:1008E00086869786C980DA80D694C794C08AD18AD2
:1008F0002F3F310529F020F08FEF90E0828793871A
:10090000FFEF4F16510439F030F08FEF90E0ED819A
:10091000FE8184879587FFEF8F16910439F030F0C0
:100920008FEF90E0ED81FE8186879787FFEFCF16EE
:10093000D10439F030F08FEF90E0ED81FE81808BB3
:10094000918B2696CDBFDEBFDF91CF911F910F9186
:10095000FF90EF90DF90CF90BF90AF909F908F90DF
:100960007F906F905F904F900895ED81FE81128689
:1009700013863DCFED81FE811486158647CFED812C
:10098000FE811686178651CFED81FE81108A118A6D
:100990005BCFDC015C968C91823188F490E0FC01A5
:1009A000E851FB44E081B0E2EB9FF0011124FC5FD1
:1009B00086509B44DC018C91818386830895F0E00E
:1009C000E0E08FEFF9CFFC01A081B0E0BC5EE0E099
:1009D000F0E10FB622812370E9F7F8946C936DE98A
:1009E00064BF63E060830FBE0895EF92FF921F9390
:1009F000CF93DF931F92CDB7DEB7182F7B0189838A
:100A0000FB016081E82FF0E0FC5E8081681719F03F
:100A1000CE010196D8DF1F5F1983F7016181E12FB5
:100A2000F0E0FC5E8081681719F0CE010196CBDF03
:100A3000C7010F90DF91CF911F91FF90EF90089524
:100A4000E091B1388091B038E81730F4F0E0E05927
:100A5000F74C808190E008958FEF9FEF0895E0912B
:100A6000B1388091B038E81750F481E08E0F809350
:100A7000B138F0E0E059F74C808190E008958FEFB5
:100A80009FEF0895CF92DF92EF92FF920F931F9303
:100A9000CF93DF936C01EB017B01E40EF51E10E0B8
:100AA00000E0CE15DF0561F06991D601ED91FC9172
:100AB0000190F081E02DC6010995080F191FF1CFB3
:100AC000C801DF91CF911F910F91FF90EF90DF90C0
:100AD000CF900895E0912A38E03240F021E030E0F4
:100AE000FC012283338390E080E0089581E08E0F43
:100AF00080932A38F0E0E65FF74C608381E090E075
:100B000008958091B0389091B138891B990B089560
:100B1000DC011C96ED91FC911D971E968C911E9701
:100B200082831C968D919C911D9740961F96EC9107
:100B30001F97E80FF92FF11D52968C91882321F011
:100B400080818860808308958081877FFBCFFC014E
:100B5000A485B585868516968C93A485B5858685EE
:100B600011968C930895DC011896ED91FC911997DC
:100B70001A968C911A97828318968D919C91199749
:100B800040961B96EC911B97E80FF92FF11D52969A
:100B90008C91882321F080818860808308958081F2
:100BA000877FFBCFFC01A085B185828516968C934B
:100BB000A085B185828511968C93089508950F9331
:100BC0001F93CF93DF93EC0188859985892BD1F40E
:100BD00068DD0C811D812E813F81DC01CB01801BF2
:100BE000910BA20BB30B80959095A095B09588279B
:100BF000B7FD83959927AA27BB27DF91CF911F9136
:100C00000F910895B4DDE5CF0F931F93CF93DF933A
:100C1000EC01488359836A837B8381E090E0888775
:100C20009987A5DD088119812A813B81DC01CB01EF
:100C3000800F911FA21FB31F8C839D83AE83BF8340
:100C4000DF91CF911F910F910895FF920F931F9302
:100C5000CF93DF93CDB7DEB72A97CDBFDEBF8C0130
:100C6000F62EFC014089518970E060E021E030E01F
:100C7000CE010196C9DFF801138AC80168DFC801F7
:100C800091DFFF2091F0BE016F5F7F4FC80114D04C
:100C900081110DC082E090E02A96CDBFDEBFDF91CA
:100CA000CF911F910F91FF900895C80131DFC801C6
:100CB0005ADF90E080E0F0CF0F931F93CF93DF9344
:100CC000EC018B0125DFEC85FD8580859E858923E0
:100CD00069F4C80174DF8823B1F360E0CE01B5DFA9
:100CE00080E0DF91CF911F910F91089581E0F9CFBE
:100CF000EF92FF920F931F93CF93DF93CDB7DEB7A1
:100D00002A97CDBFDEBF8C01E62EDC0150964D91B7
:100D10005C9170E060E021E030E0CE01019674DF8C
:100D200098E0F92EC80113DFC801E7FE16C01BDFEB
:100D3000BE016F5F7F4FC801BFDF811110C082E02D
:100D4000E82EF12CC7012A96CDBFDEBFDF91CF91EF
:100D50001F910F91FF90EF90089524DFE9CFEE0CE3
:100D6000CE0101962CDF882321F061E0C8016DDF00
:100D7000E6CFFA94F110D6CFC801E9DEC801F3DE60
:100D8000BE016F5F7F4FC80197DF8823C1F2D80192
:100D90001896ED91FC91199790851A968C9198234D
:100DA00081E009F480E0E82EC801D1DECBCFFF92CC
:100DB0000F931F93CF93DF93CDB7DEB72A97CDBFA5
:100DC000DEBF8C01F62EFC014089518970E060E0A5
:100DD00021E030E0CE01019617DFC801B8DEC8017E
:100DE000C2DEBE016F5F7F4FC80166DF882371F0EE
:100DF000C801D8DE6F2DC8017BDF2A96CDBFDEBFCC
:100E0000DF91CF911F910F91FF90089582E090E0C4
:100E1000F4CF0F931F93CF93DF93EC0100912B3806
:100E200010E0000F111F8B89882379F0602FCE010D
:100E3000BEDF8130910519F110E0029771F484E072
:100E4000DF91CF911F910F910895CE01ABDECE01BE
:100E50007EDE602FCE014CDFECCF80912A38181750
:100E600080F4E12FF0E0E65FF74C6081CE0140DFD7
:100E70008130910541F0029711F31F5FEECF82E0C0
:100E8000DFCF80E0DDCF83E0DBCFDF92EF92FF9218
:100E90000F931F93CF93DF9300D0CDB7DEB78C01B4
:100EA000606869834A83DC0156968D919C9129E2A2
:100EB00020932B3810922A38DC01ED91FC910280AE
:100EC000F381E02D42E050E0BE016F5F7F4F099556
:100ED000F801E688F788C7019CDFD82E61E0C701DA
:100EE000B4DED8011996DC920F900F90DF91CF916C
:100EF0001F910F91FF90EF90DF90089540E060E028
:100F0000C4CF43E060E0C1CF41E060E0BECFCF930B
:100F1000DF93EC01F9DF63E070E080E090E0FDDB5F
:100F2000CE01EFDF65E070E080E090E0DF91CF91EF
:100F3000F4CB9F92AF92BF92CF92DF92EF92FF924B
:100F40000F931F93CF93DF93CDB7DEB72A97CDBF13
:100F5000DEBF8C01962E1092B1381092B038DC01B1
:100F600053968C91882309F46BC063E5C8011FDF99
:100F7000892B09F076C090E7E92E98E3F92ED12C61
:100F8000E92DE150FF0B5F01D7011C92F801408968
:100F9000518970E060E021E030E0CE01019634DE5E
:100FA00088E0C82ED7018C91880F8C93C801CFDDC3
:100FB000C801D9DDBE016F5F7F4FC8017DDE882388
:100FC00009F44FC0D8011C96ED91FC911D978085C6
:100FD0001E969C911E97892309F43AC01896ED91AC
:100FE000FC91199780851A969C91892321F0F7012D
:100FF000808181608083CA94C110D4CFC801A7DDED
:10100000C70180579843A816B90609F43EC0C80125
:10101000C9DDBE016F5F7F4FC8014EDE882309F135
:10102000D8011C96ED91FC911D9780851E969C9190
:10103000892371F5CE010196C2DD882389F30EC0A4
:10104000C801B0DDC80183DD63E5C80151DE90CF82
:10105000CE010196B4DD882309F4B4CF61E0C80164
:10106000F4DD61E0C801F1DD8091B0382A96CDBF92
:10107000DEBFDF91CF911F910F91FF90EF90DF9036
:10108000CF90BF90AF909F900895C8016CDDC1CF05
:10109000C8015DDD8091B0388F5F8093B038D39404
:1010A000BFEFEB1AFB0A9D106FCFDBCFCF92DF9221
:1010B000EF92FF920F931F93CF93DF93CDB7DEB7DD
:1010C0002897CDBFDEBF8C01DC0156968D919C9197
:1010D00029E220932B3810922A38DC01ED91FC9103
:1010E0000190F081E02D64E90995F801E688F78820
:1010F000C7018FDED82E61E0C701A7DDD8011996A0
:10110000DC92199768E056968D919C9112DFFE0152
:1011100031967F016E01F9E0CF0ED11CD8015696B1
:101120008D919C91DC01ED91FC910284F385E02D81
:101130000995F70181937F01EC15FD0579F7898108
:101140009A81D80150968D939C9351978B819C8165
:101150001A968D939C931B978D819E811C968D93DF
:101160009C931D978F8198851E968D939C931F97B6
:10117000FEDAF801628B738B848B958B2896CDBF3A
:10118000DEBFDF91CF911F910F91FF90EF90DF9025
:10119000CF900895FF920F931F93CF93DF93EC01AD
:1011A0008E899F8929E220932B3810922A38606813
:1011B000DC01ED91FC910190F081E02D09950E8903
:1011C0001F89C80126DEF82E61E0C8013EDDF986E0
:1011D00061E08E899F89ADDE8E899F89DC01ED916A
:1011E000FC910284F385E02D0995DF91CF911F9149
:1011F0000F91FF900895CF93DF93EC0160E0CADF79
:10120000482F4C7F60E0CE01DF91CF913ECE90E041
:1012100080E008958F929F92AF92BF920F931F9399
:10122000CF93DF93CDB7DEB7A197CDBFDEBF19A2B5
:10123000423008F44AE08E010F5D1F4F842E912C3E
:10124000B12CA12CA50194010E940219E62FB9012D
:10125000CA01EA3024F5E05DD801EE938D01232B1D
:10126000242B252B79F790E080E0109761F0FD01A9
:1012700001900020E9F73197AF014A1B5B0BBD01DC
:1012800082EB98E3FCD8A196CDBFDEBFDF91CF9172
:101290001F910F91BF90AF909F908F900895E95C40
:1012A000DBCF42E050E066E275EB82EB98E3E7C803
:1012B000CF93DF93BAD9EC01F4DF8C0F9D1FDF9140
:1012C000CF910895CF93DF93823108F047C090E02B
:1012D000EC01C650DB4428812F3F09F43FC0AC012C
:1012E00048515B44DA01EC91B0E2EB9FF00111242C
:1012F000FC5F611136C0268330812323A1F49C0159
:101300002A523B44D9012C91309769F1283058F585
:101310007096E20FF11D3FB7F8942081611126C04D
:10132000277F20833FBF8C539B44FC0190819923EE
:10133000A9F08881903409F19038E1F0903171F48E
:10134000DA019C919130A1F4853010F0880F8295DC
:101350009091010A809589238093010ADF91CF91B2
:1013600008952583C9CFF0E0E0E0D5CF2860D9CF3C
:10137000880FEECF1092A006F1CF20E4823009F45E
:1013800020E89091920A922349F36FB7F8949091D4
:10139000800A9E7F9093800A4091920A30E02095C7
:1013A000309550E02423352398ED94BF2093920A82
:1013B00090918E0A90FFFCCF9091800A916090935B
:1013C000800A813039F4809150048F7780935004E3
:1013D0006FBFC4CF809151048F7780935104F8CFB1
:1013E000CF93CBE0C15089F064E670E080E090E0FC
:1013F00094D961E089E066DF64E670E080E090E027
:101400008CD960E089E05EDFEDCFCF9108952F9217
:101410003F924F925F926F927F928F929F92AF9284
:10142000BF92CF92DF92EF92FF920F931F93CF93D1
:10143000DF93CDB7DEB72E97CDBFDEBF40ECC42E15
:1014400044EBD42E8E010F5F1F4F580176015FE1F0
:10145000952E909206062DE02A95F1F7000093D97B
:1014600087EC90E00197F1F700C000008CD98091E3
:1014700000389091013807D986D9D7018D917D0127
:101480008093060680D98091003890910138FBD86E
:101490007AD9F501819391935F01F4ECEF16F4EBA7
:1014A000FF06B9F62CEBE22E24EBF22E2CE238E309
:1014B0002B873C8749013FE1632E609206063DE0A1
:1014C0003A95F1F700005FD987EC90E00197F1F7CA
:1014D00000C0000058D9D7017D907D0161E0872DC3
:1014E000F1DE8091003890910138CDD84CD9F601C9
:1014F00081916F018093060646D9809100389091C2
:101500000138C1D840D9D4018D939D934D0160E03D
:10151000872DD8DEB0ECEB16B4EBFB0671F6E2E5F6
:10152000F8E3ED87FE8789E4282E88E3382E21E44E
:1015300038E329873A87580138E0A30EB11C882484
:101540008A9493E0992EF80180819181D401A81B9F
:10155000B90BB7FD7BC0A083B183AB85BC85CD90B3
:10156000DD90AB87BC870E5F1F4FD101ED90FD90E2
:101570001D0180819181C81AD90AEC14FD0408F478
:101580006701B70190E080E00E94D6162B013C0174
:10159000E985FA8561917191E987FA8790E080E0A9
:1015A0000E94D6169B01AC01C301B2010E9404182F
:1015B0002B013C0120E030E0A9010E94D21687FFF8
:1015C00003C0412C512C3201B7016C197D09072E43
:1015D000000C880B990B0E94D8166B017C01A301AB
:1015E000920160E070E088EC92E40E9469189B012F
:1015F000AC01C701B6010E9437170E94D1186F3F96
:10160000710519F014F06FEF70E077FD60E0AD85C3
:10161000BE856D93AD87BE87A016B10609F093CF46
:101620002E96CDBFDEBFDF91CF911F910F91FF901E
:10163000EF90DF90CF90BF90AF909F908F907F9072
:101640006F905F904F903F902F900895108211827D
:1016500084CFCF92DF92EF92FF921F93CF93DF93CD
:10166000CDB7DEB72897CDBFDEBFCE0101967C0196
:1016700088E0D7011D928A95E9F7C9DEC8DE11D846
:101680001AE06E01B9E0CB0ED11CC1DEF7014CE2CD
:1016900058E321913191DA018D919D91AD01281787
:1016A000390730F49F0122503109D9018D939C9361
:1016B000CE16DF0671F70E9451030E9451031150AC
:1016C00021F789819A8180934138909342388B81A8
:1016D0009C8180934338909344388D819E81809380
:1016E0004538909346388F819885809347389093FA
:1016F00048382896CDBFDEBFDF91CF911F91FF9074
:10170000EF90DF90CF900895CF92DF92EF92FF920B
:101710001F93CF93DF93CDB7DEB72A97CDBFDEBF40
:1017200088E0E2EAF4EBDE01119601900D928A95D1
:10173000E1F76DDE6CDE0E9451031AE07E0189E064
:10174000E80EF11C64DEFE0131964CE258E3219173
:101750003191DA018D919D91AD018217930730F49B
:101760009F0122503109D9018D939C93EE15FF05FD
:1017700071F70E9451030E945103115019F789819A
:101780009A818093493890934A388B819C818093C9
:101790004B3890934C388D819E8180934D38909337
:1017A0004E388F81988580934F389093503889E4D4
:1017B000C82E88E3D82E1AE0F601819191916F012D
:1017C00089879A87B701812F10D91E5F1231A1F73F
:1017D00007DE2A96CDBFDEBFDF91CF911F91FF902C
:1017E000EF90DF90CF9008958231F0F490E0FC010B
:1017F000E650FB4420812F3FB9F0FC01E851FB4447
:10180000E08130E2E39FF0011124FC5F613069F474
:1018100021838A529B44DC018C91E80FF11D808961
:10182000613029F08860808B08952283F2CF877F12
:10183000FACF2F923F924F925F926F927F928F9248
:101840009F92AF92BF92CF92DF92EF92FF920F934F
:101850001F93CF93DF93EC015ADBCE0127DCEA84A0
:10186000FB840C851D858E849F8448885988CE0111
:10187000C2DCCE0149DB63E070E080E090E00E94D2
:101880008D03CE013EDBCE0184D865E070E080E0C0
:1018900090E00E948D03CE0109DCAA84BB84CC8435
:1018A000DD846E847F8428883988CE01A4DCEA1820
:1018B000FB0821E0E2162AEFF20608F0C2C0EA8631
:1018C000FB860C191D0901308AEF180708F0BCC00F
:1018D0000C871D87C4018619970981302AEF92076A
:1018E00008F0B5C08E879F874218530881E04816DC
:1018F0008AEF580608F0AEC0488A598A8AE193E018
:101900000E9415036A857B8590E080E04AE082DCD6
:1019100086E193E00E9415036C857D8590E080E070
:101920004AE078DC82E193E00E9415036E857F85B2
:1019300090E080E04AE06EDC8EE093E00E941503C8
:101940006889798990E080E04AE064DCAADC2A8535
:101950003B850C851D85CE84DF84E888F98821309D
:101960008AEF380710F01A861B86AFEFB0E00E94AE
:10197000F5172881398150E040E00E9402192901C1
:101980002A873B879801AFEFB0E00E94F5172A81C4
:101990003B8150E040E00E94021989012C873D877D
:1019A0009601AFEFB0E00E94F5172C813D8150E029
:1019B00040E00E94021969012E873F879701AFEF2F
:1019C000B0E00E94F5172E813F8150E040E00E9478
:1019D0000219C901288B398B2FEF4216510429F0C7
:1019E00020F02FEF30E02A873B870F3F110529F0C9
:1019F00020F02FEF30E02C873D872FEFC216D10467
:101A000029F020F02FEF30E02E873F878F3F9105A0
:101A100029F020F08FEF90E0888B998BDF91CF91A8
:101A20001F910F91FF90EF90DF90CF90BF90AF90FC
:101A30009F908F907F906F905F904F903F902F90EE
:101A400008951A861B863DCF1C861D8643CF1E86B1
:101A50001F864ACF188A198A51CF0F931F93CF93AD
:101A6000DF93EC010E94B7030A891B892C893D8909
:101A7000601B710B820B930B65317105810591051C
:101A800010F0CE01D6DE88899989DF91CF911F9120
:101A90000F9108950F931F93CF93DF93EC010E9452
:101AA000B7030A891B892C893D89601B710B820B46
:101AB000930B653171058105910510F0CE01B9DEFA
:101AC0008E859F85DF91CF911F910F9108950F9380
:101AD0001F93CF93DF93EC010E94B7030A891B8900
:101AE0002C893D89601B710B820B930B653171054D
:101AF0008105910510F0CE019CDE8C859D85DF91DE
:101B0000CF911F910F9108950F931F93CF93DF9360
:101B1000EC010E94B7030A891B892C893D89601B4F
:101B2000710B820B930B653171058105910510F0E6
:101B3000CE017FDE8A859B85DF91CF911F910F912A
:101B40000895CF92DF92EF92FF920F931F93CF935E
:101B5000DF930E9451036B017C0180914038882300
:101B600019F081E899E3D0D980913F38882319F0A2
:101B700082E699E3C9D980913E38882319F083E43D
:101B800099E3C2D90E9451036C197D098E099F09FE
:101B90006C3F784081059105A8F3809140388823F7
:101BA00019F081E899E3ADD980913F38882319F085
:101BB00082E699E3A6D980913E38882319F083E420
:101BC00099E39FD90E9451036B017C0120DC0E94A4
:101BD00051036C197D098E099F09603A7F40810588
:101BE0009105A8F380914038882319F081E899E3A2
:101BF0005DDA80913F38882319F082E699E356DA5E
:101C000080913E38882319F083E499E34FDA80917C
:101C10004038882351F081E899E376D981E899E347
:101C200070D981E899E30E94C90480913F388823E4
:101C300051F082E699E368D982E699E362D982E6B7
:101C400099E30E94C90480913E38882351F083E4CF
:101C500099E35AD983E499E354D983E499E30E9440
:101C6000C9040E9451036B017C010E9451036C194D
:101C70007D098E099F09603A7F4081059105A8F38F
:101C800080914038882371F181E899E33DDFEC01D0
:101C900081E899E31CDF7C0181E899E3FBDE6C01BC
:101CA00081E899E3DADE8C0181E899E3FFD99601B6
:101CB000A701BE0181E899E30E94D20381E899E37C
:101CC00023DF8093563881E899E301DF809357380A
:101CD00081E899E3DFDE8093583881E899E3BDDE3F
:101CE0008093593880913E38882371F183E499E3D9
:101CF0000BDFEC0183E499E3EADE7C0183E499E302
:101D0000C9DE6C0183E499E3A8DE8C0183E499E3E6
:101D1000CDD99601A701BE0183E499E30E94D203C5
:101D200083E499E3F1DE80935A3883E499E3CFDECC
:101D300080935B3883E499E3ADDE80935C3883E481
:101D400099E38BDE80935D3880913F38882371F171
:101D500082E699E3D9DEEC0182E699E3B8DE7C0104
:101D600082E699E397DE6C0182E699E376DE8C01E8
:101D700082E699E39BD99601A701BE0182E699E329
:101D80000E94D20382E699E3BFDE80935E3882E64A
:101D900099E39DDE80935F3882E699E37BDE809352
:101DA000603882E699E359DE80936138809140384B
:101DB000882319F081E899E3A1D880913F388823DE
:101DC00019F082E699E39AD880913E38882319F079
:101DD00083E499E393D880914038811108C0109230
:101DE00059381092583810925738109256388091BE
:101DF0003E38811108C010925D3810925C38109204
:101E00005B3810925A3880913F38811108C0109287
:101E100061381092603810925F3810925E38DF910E
:101E2000CF911F910F91FF90EF90DF90CF90089589
:101E3000EF92FF920F931F93CF93DF93EC010E89E4
:101E40001F898AE0E82EF12CD8015096ED92FC9281
:101E500051971896ED91FC9119971A968C911A97B3
:101E600086831C96ED91FC911D971E968C9186831E
:101E7000C8010E94B305C8010E948805EE89FF8948
:101E8000E08AF18A62E1CE0185D98D3459F184343A
:101E900049F1803139F1893129F163E070E080E066
:101EA00090E00E948D0362E1CE0174D9182F8D3429
:101EB000C9F08434B9F08031A9F0893199F084EF08
:101EC00092E00E941503612F70E090E080E040E115
:101ED000A1D9E7D980E0DF91CF911F910F91FF90B9
:101EE000EF90089581E0888F1B8D412F61E0CE0136
:101EF0000E9445071B8F198D0A8D412F6FE0CE017F
:101F00000E944507198F0A8FCE0101D82E8D2150CE
:101F1000330B49E0429FC001439F900D112490E58F
:101F2000980FDE019E0180E0E92FE81BF0E0FC5EE7
:101F30004081F90141939F018150873FA9F79E019C
:101F4000285F3F4F80E09D9189272A173B07D9F7EB
:101F50009885891305C082ED92E0AAD981E0BBCFB4
:101F600080E092E0888399838A839B838C839D831E
:101F700080E094E08E839F838CE792E0EECFCF9257
:101F8000DF92EF92FF920F931F93CF93DF93CDB722
:101F9000DEB72A97CDBFDEBF7C01DC0158968C915D
:101FA00081110FC087E393E083D92A96CDBFDEBFAE
:101FB000DF91CF911F910F91FF90EF90DF90CF9025
:101FC000089569837A834B835C832D833E830F83DB
:101FD00018871986FE0131966F019E01275F3F4FDA
:101FE0009191898589278987E217F307C9F7D70176
:101FF0005E962C912150330B49E0429F8001439F14
:10200000100D1124005B10E0E02FE11BEA87D601E0
:102010006D916D01F0E0FC5E8081681721F0CE01CA
:102020000A960E94E3041150173F71F7C70100DFC1
:10203000BCCF2F923F924F925F926F927F928F927E
:102040009F92AF92BF92CF92DF92EF92FF920F9347
:102050001F93CF93DF93CDB7DEB7E197CDBFDEBF40
:102060008CE291E08093003890930138F2DA07E235
:1020700011E049E4C42E48E3D42E009300381093B5
:102080000138E7DA31E4E32E38E3F32EF70180E09C
:1020900021913191293C310508F08F5FCE16DF0682
:1020A000B9F7843029F00550110939F705E010E03F
:1020B000009300381093013814E1D7018D919D9160
:1020C0007D0189839A83BE016F5F7F4F812F0E94BC
:1020D000F5041E5F1C3189F760E078E383E00E941D
:1020E000F50414E12EDD1150E9F71BA61CA61DA670
:1020F0001EA61FA218A619A61AA61BA21CA21DA2E4
:102100001EA21F8E18A219A21AA21B8E1C8E1D8E33
:102110001E8E1F8A188E198E1A8E1B8A1C8A1D8A83
:102120001E8A1F86188A198A1A8A1B861C861D8693
:102130001E861F82188619861A861B821C821D82A3
:102140001E82412C512C32011CE90E94B703C09021
:102150006438D0906538E0906638F09067386C1934
:102160007D098E099F09653171058105910568F327
:102170000E94B70360936438709365388093663823
:10218000909367380E9451036B017C018091403825
:10219000882321F081E899E30E94840780913F38E9
:1021A000882321F082E699E30E94840780913E38DB
:1021B000882321F083E499E30E9484070E9451035D
:1021C0006C197D098E099F096C3F78408105910546
:1021D000A8F380914038882321F081E899E30E9498
:1021E000810780913F38882321F082E699E30E949D
:1021F000810780913E38882321F083E499E30E948F
:1022000081070E9451036B017C0101D90E94510397
:102210006C197D098E099F09603A7F4081059105FF
:10222000A8F380914038882321F081E899E30E9447
:10223000560880913F38882321F082E699E30E9476
:10224000560880913E38882321F083E499E30E9468
:10225000560880914038882361F081E899E30E9414
:10226000840781E899E30E94810781E899E30E944D
:10227000C90480913F38882361F082E699E30E9487
:10228000840782E699E30E94810782E699E30E942F
:10229000C90480913E38882361F083E499E30E9469
:1022A000840783E499E30E94810783E499E30E9411
:1022B000C9040E9451036B017C010E9451036C19F7
:1022C0007D098E099F09603A7F4081059105A8F339
:1022D0008091403817FDE7C1882309F450C081E898
:1022E00099E312DC4C0181E899E3F1DB5C0181E8C0
:1022F00099E3D0DB6C0181E899E3AFDB7C0181E8F5
:1023000099E30E94560881E899E3FEDB881A990A4E
:10231000480C591C611C711C81E899E3D8DBA81A90
:10232000B90A8B819C81AD81BE818A0D9B1DA11D47
:10233000B11D8B839C83AD83BE8381E899E3AADBC7
:10234000C81AD90A8F819885A985BA858C0D9D1DDB
:10235000A11DB11D8F839887A987BA8781E899E36A
:102360007CDBE81AF90A8B859C85AD85BE858E0DD0
:102370009F1DA11DB11D8B879C87AD87BE87809156
:102380003E38882309F458C083E499E3BDDB4C014F
:1023900083E499E39CDB5C0183E499E37BDB6C01E0
:1023A00083E499E35ADB7C0183E499E30E945608B5
:1023B00083E499E3A9DB881A990A8F859889A9890A
:1023C000BA89880D991DA11DB11D8F87988BA98B86
:1023D000BA8B83E499E37BDBA81AB90A8B899C89C1
:1023E000AD89BE898A0D9B1DA11DB11D8B8B9C8B58
:1023F000AD8BBE8B83E499E34DDBC81AD90A8F8974
:10240000988DA98DBA8D8C0D9D1DA11DB11D8F8B31
:10241000988FA98FBA8F83E499E31FDBE81AF90A32
:102420008B8D9C8DAD8DBE8D8E0D9F1DA11DB11D03
:102430008B8F9C8FAD8FBE8F80913F38882309F49E
:1024400058C082E699E360DB4C0182E699E33FDB0A
:102450005C0182E699E31EDB6C0182E699E3FDDA1A
:102460007C0182E699E30E94560882E699E34CDB00
:10247000881A990A8F8D98A1A9A1BAA1880D991DD2
:10248000A11DB11D8F8F98A3A9A3BAA382E699E3DA
:102490001EDBA81AB90A8BA19CA1ADA1BEA18A0D11
:1024A0009B1DA11DB11D8BA39CA3ADA3BEA382E662
:1024B00099E3F0DAC81AD90A8FA198A5A9A5BAA5F7
:1024C0008C0D9D1DA11DB11D8FA398A7A9A7BAA70B
:1024D00082E699E3C2DAE81AF90A8BA59CA5ADA5B4
:1024E000BEA58E0D9F1DA11DB11D8BA79CA7ADA7DD
:1024F000BEA780914038882321F081E899E30E94AB
:102500007E0780913F38882321F082E699E30E947C
:102510007E0780913E38882321F083E499E30E946E
:102520007E071F5F143609F010CE909140389FA7A8
:10253000992309F4D0C024E6C22ED12CE12CF12C31
:10254000C301B201A70196015DD628AB39AB6B81FF
:102550007C818D819E81A701960154D62B833C837B
:102560006F81788589859A85A70196014BD62F833F
:1025700038876B857C858D859E85A701960142D61F
:10258000890180913E38882309F4AEC094E6C92EB3
:10259000D12CE12CF12C6F85788989899A89A70142
:1025A000960130D62B873C876B897C898D899E89E3
:1025B000A701960127D619016F89788D898D9A8D8B
:1025C000A70196011FD629016B8D7C8D8D8D9E8D67
:1025D000A701960117D6390180913F38882309F465
:1025E0008CC084E6882E912CA12CB12C6F8D78A103
:1025F00089A19AA1A501940105D679016BA17CA1BD
:102600008DA19EA1A5019401FDD569016FA178A5B9
:1026100089A59AA5A5019401F5D52F87388B6BA5BF
:102620007CA58DA59EA5A5019401ECD54901AFA57A
:10263000AA2349F02F8138854B815C8168A979A94B
:1026400081E899E39CDC80913E38882341F0830146
:102650009201A1016B857C8583E499E390DC8091F4
:102660003F38882341F084012F853889A601B701BE
:1026700082E699E384DC0E94F009E196CDBFDEBFDB
:10268000DF91CF911F910F91FF90EF90DF90CF904E
:10269000BF90AF909F908F907F906F905F904F9082
:1026A0003F902F900895882321F081E899E30E94BC
:1026B000560880913E38882321F083E499E30E94F4
:1026C000560880913F38882309F413CF82E699E3B6
:1026D0000E9456080ECF10E000E01F8218861B8271
:1026E0001C8218AA19AA4DCF712C612C512C412C97
:1026F000312C212C1B861C866FCF912C812C1F86A0
:10270000188AD12CC12CF12CE12C91CF0F931F935F
:10271000CF93DF938C01D62FC42FDC015C966C9392
:102720005C975D964C9384E190E094D5FC01128215
:10273000138288EE93E0A0E0B0E084839583A683C3
:10274000B7838EEA94EB8083918384E690E0808B5C
:10275000918B81E0828B138A6D2F70E0DB01A85191
:10276000BB448C91B0E28B9FC00111249C5F808799
:10277000918766507B44DB018C9182871386869516
:1027800021F093859F5F9387FACF4C2F50E0DA01B9
:10279000A851BB448C91B0E28B9FC00111249C5F77
:1027A0008487958746505B44DA018C91868717862B
:1027B000869521F097859F5F9787FACFD801569627
:1027C000ED93FC935797C801DF91CF911F910F9123
:1027D0002FCBEF93FF93F898E2EBF8E30BC0EF9366
:1027E000FF93F898E2EBF8E334C0EF93FF93E2EB4A
:1027F000F8E35CC02F932FB72F938F939F93AF93E2
:10280000BF936894CF93DF9320E0C085D8E0908990
:10281000DF01A90FB21FAF5ABF4F8C9120E42C8368
:102820008A839F5F9F738D812785291302C08F7DC7
:102830008D83908BDF91CF9116F00C94C802BF91DD
:10284000AF919F918F912F912FBF2F91FF91EF917A
:1028500018952F932FB72F933F938F939F93CF93D9
:10286000DF93C085D8E0898198818674880F34858C
:10287000382B82FD0DC0C58581E08C0F8F732685B6
:10288000281791F0CE0FDF2F20E0D21F998B85877C
:102890003487DF91CF919F918F913F912F912FBFDF
:1028A0002F91FF91EF9118953064F2CF8F938FB7EE
:1028B0008F939F93CF93DF93C085D8E09D818881CC
:1028C0008C8187FDFCCF9F7B90689D83DF91CF91AA
:1028D0009F918F918FBF8F91FF91EF9118958F935B
:1028E00081E080938D0A8FB78F93EF93FF93E4E39A
:1028F000F8E39F9368948FEF0DC0E89484819581ED
:10290000805D9C4F84839583885E934080F08483B0
:1029100095838FEF9081981B919390819F4F919316
:1029200090819F4F919390819F4F919336F39F9108
:10293000FF91EF918F918FBF8F911895E2EBF8E3A4
:102940001282138288EE93E0A0E0B0E08483958346
:10295000A683B78388E195EB8083918380E098E03C
:102960008087918712861386E1E8F9E3108E2FEFB6
:10297000238F81E090E0818F928F31E0368FE2E605
:10298000F9E3108E238F818F928F32E0368FE3E44C
:10299000F9E3108E238F818F928F83E0868F0895C5
:1029A00088ED90E084BF90936100E0E0F6E083E57D
:1029B00082838DE0858380E28383C1E0C0831092AF
:1029C0000202C093030A8EEF8093260A8093270A9F
:1029D0008BE08093000AE0E8FAE08DEF91E086A7B3
:1029E00097A7118280E88283C48781E180837894ED
:1029F00061E089E00E94F40B61E089E00E946209D5
:102A000061E08AE00E94F40B61E088E00E94F40B30
:102A100061E080E10E94F40B61E08DE00E94F40B24
:102A200060E08AE00E94620960E088E00E9462093A
:102A300060E080E10E94620960E08DE00E9462092E
:102A4000C093BD388091BE3880FF12C082EB98E3FE
:102A50000E942F03E091BA38F091BB38168215829C
:102A600080EC84838091C0388093BF381092BE3848
:102A70001FB7F894E091BA38F091BB38168283E022
:102A8000878386EB92E080879187148680E8858330
:102A900080EC86839091BD38C091BC388091010252
:102AA000992309F486C0816080930102C90FDD2754
:102AB000DD1FCC0FDD1FCC0FDD1FC45FDA4461E0EA
:102AC00088810E94F40B62E089810E94F40B1FBF91
:102AD0008BEC93E00E94580982E5809302061092E5
:102AE00000068FE1809306062DE02A95F1F700009D
:102AF00080910006816080930006E2E5F8E3119280
:102B000088E3E236F807D9F7809103148093003800
:102B1000809104148093013880910038909101389D
:102B20008D32914008F047C069E478E38AE090E094
:102B30000E94130261E478E384E190E00E941302B2
:102B400045E064E081E899E3E1DD8823D9F181E0A3
:102B5000809340384BE06CE082E699E3D7DD882330
:102B6000B1F181E080933F3847E066E083E499E388
:102B7000CDDD882389F181E080933E38C4E0D1E047
:102B8000C15079F1D093523864E670E080E090E073
:102B90000E948D0361E089E00E94620964E670E0B2
:102BA00080E090E00E948D0360E089E00E9462096D
:102BB000E7CF8E7F79CF8CE291E0809300389093BD
:102BC0000138B2CF8EEA93E00E945809C3CF81E961
:102BD00093E00E945809C8CF8DE693E00E945809FF
:102BE000CDCF0E94B703C1E082EB98E30E949D0223
:102BF0001816190674F582EB98E30E949D021816C8
:102C000019063CF482EB98E30E947B0280936D38B6
:102C1000F2CFD0916D388FE98D0F833028F7C093B4
:102C20006C380E94B703609368387093693880935A
:102C30006A3890936B3880910238D81771F0D0932E
:102C400002381092643810926538109266381092EB
:102C5000673880916C38882301F161E089E00E9437
:102C6000620980910238813609F059C08091633839
:102C7000811103C08091623881110E94A10D40E151
:102C800050E062E578E382EB98E30E943F02109205
:102C90006C3860E089E00E9462090E94B7030091ED
:102CA00068381091693820916A3830916B38601B10
:102CB000710B820B930B603375478105910508F00A
:102CC00064C00E94B7030091643810916538209168
:102CD000663830916738601B710B820B930B64313F
:102CE00071058105910508F47FCF809151388F5F80
:102CF000809351380E94B7036093643870936538AD
:102D0000809366389093673880910238813621F538
:102D10000E94A10D109263381092623865CF8236FE
:102D200079F480916338811103C083D9C0936338EB
:102D3000C093523861E082EB98E30E94C902A7CFAA
:102D4000833609F0A4CF809162388111F1CF0E94BF
:102D5000840BC0936238ECCF823659F4809163388B
:102D6000811104C066D9C09363383ECFC0935238F6
:102D70003BCF833609F038CF809162388111F6CF8E
:102D80000E94840BC09362382FCF81E899E30E94A0
:102D9000C90482E699E30E94C90483E499E30E948E
:102DA000C90422CF40D008F481E00895E89409C016
:102DB00097FB3EF490958095709561957F4F8F4F6E
:102DC0009F4F9923A9F0F92F96E9BB279395F69584
:102DD000879577956795B795F111F8CFFAF4BB0F02
:102DE00011F460FF1BC06F5F7F4F8F4F9F4F16C066
:102DF000882311F096E911C0772321F09EE8872FF0
:102E0000762F05C0662371F096E8862F70E060E0AB
:102E10002AF09A95660F771F881FDAF7880F969524
:102E2000879597F90895990F0008550FAA0BE0E8C8
:102E3000FEEF16161706E807F907C0F0121613067C
:102E4000E407F50798F0621B730B840B950B39F4BC
:102E50000A2661F0232B242B252B21F408950A2622
:102E600009F4A140A6958FEF811D811D08950BD017
:102E700078C069D028F06ED018F0952309F05AC0B8
:102E80005FC01124A2C07ED0A0F3959FD1F3950F0F
:102E900050E0551F629FF001729FBB27F00DB11DDE
:102EA000639FAA27F00DB11DAA1F649F6627B00D6E
:102EB000A11D661F829F2227B00DA11D621F739F57
:102EC000B00DA11D621F839FA00D611D221F749F65
:102ED0003327A00D611D231F849F600D211D822FAC
:102EE000762F6A2F11249F5750408AF0E1F08823F3
:102EF0004AF0EE0FFF1FBB1F661F771F881F915000
:102F00005040A9F79E3F510570F014C05EC05F3F6E
:102F1000ECF3983EDCF3869577956795B795F79532
:102F2000E7959F5FC1F7FE2B880F911D96958795BA
:102F300097F9089597F99F6780E870E060E0089539
:102F40009FEF80EC089500240A94161617061806C1
:102F50000906089500240A9412161306140605069D
:102F60000895092E0394000C11F4882352F0BB0F2E
:102F700040F4BF2B11F460FF04C06F5F7F4F8F4F91
:102F80009F4F089557FD9058440F551F59F05F3FCC
:102F900071F04795880F97FB991F61F09F3F79F07B
:102FA00087950895121613061406551FF2CF4695FD
:102FB000F1DF08C0161617061806991FF1CF86957F
:102FC0007105610508940895E894BB276627772763
:102FD000CB0197F9089509D0A59F900DB49F900D4E
:102FE000A49F800D911D11240895A29FB001B39F4D
:102FF000C001A39F700D811D1124911DB29F700D02
:10300000811D1124911D08955058BB27AA270ED069
:10301000A8CF99DF30F09EDF20F031F49F3F11F40C
:103020001EF48ECF0EF4E095E7FB84CFE92FAADFE4
:1030300080F3BA17620773078407950718F071F4D5
:103040009EF5C2CF0EF4E0950B2EBA2FA02D0B01EA
:10305000B90190010C01CA01A0011124FF27591BDD
:1030600099F0593F50F4503E68F11A16F040A22FE3
:10307000232F342F4427585FF3CF46953795279554
:10308000A795F0405395C9F77EF41F16BA0B620B53
:10309000730B840BBAF09150A1F0FF0FBB1F661F9A
:1030A000771F881FC2F70EC0BA0F621F731F841FDD
:1030B00048F4879577956795B795F7959E3F08F003
:1030C000B3CF9395880F08F09927EE0F97958795C2
:1030D00008950CD046CF3EDF40F035DF30F021F4CC
:1030E0005F3F19F027CF511170CF2ACF4BDF98F3F4
:1030F0009923C9F35523B1F3951B550BBB27AA2779
:1031000062177307840738F09F5F5F4F220F331FEA
:10311000441FAA1FA9F333D00E2E3AF0E0E830D0B6
:1031200091505040E695001CCAF729D0FE2F27D0B9
:10313000660F771F881FBB1F261737074807AB0787
:10314000B0E809F0BB0B802DBF01FF2793585F4FFC
:103150002AF09E3F510568F0EDCE37CF5F3FECF38C
:10316000983EDCF3869577956795B795F7959F5FC1
:10317000C9F7880F911D9695879597F90895E1E015
:10318000660F771F881FBB1F621773078407BA0774
:1031900020F0621B730B840BBA0BEE1F88F7E095CF
:1031A000089504D06894B11110CF0895F3DE88F02B
:1031B0009F5790F0B92F9927B751A0F0D1F0660F23
:1031C000771F881F991F1AF0BA95C9F712C0B1303E
:1031D00081F0FADEB1E00895F7CE672F782F8827C7
:1031E000B85F39F0B93FCCF3869577956795B3957D
:1031F000D9F73EF490958095709561957F4F8F4FEC
:103200009F4F0895A1E21A2EAA1BBB1BFD010DC002
:10321000AA1FBB1FEE1FFF1FA217B307E407F50786
:1032200020F0A21BB30BE40BF50B661F771F881F62
:10323000991F1A9469F760957095809590959B01F8
:10324000AC01BD01CF010895EE0FFF1F0590F49171
:10325000E02D09940F931F93CF93DF938230910554
:1032600010F482E090E0E091A239F091A33930E0CF
:1032700020E0B0E0A0E0309799F42115310509F481
:103280004AC0281B390B24303105D8F58A819B812F
:103290006115710589F1FB0182839383FE0111C0E1
:1032A000408151810281138148175907E0F0481786
:1032B000590799F4109761F012960C931297139690
:1032C0001C933296CF01DF91CF911F910F910895FA
:1032D0000093A2391093A339F4CF2115310551F091
:1032E0004217530738F0A901DB019A01BD01DF0144
:1032F000F801C1CFEF01F9CF8093A2399093A339A0
:10330000CDCFFE01E20FF31F81939193225031093B
:1033100028833983D7CF2091A0393091A139232B2D
:1033200041F420910538309106382093A03930932C
:10333000A13920910338309104382115310541F429
:103340002DB73EB74091073850910838241B350BF4
:10335000E091A039F091A139E217F307A0F42E1BF8
:103360003F0B2817390778F0AC014E5F5F4F2417E9
:10337000350748F04E0F5F1F4093A0395093A13995
:10338000819391939FCFF0E0E0E09CCFCF93DF93C8
:103390000097E9F0FC01329712821382A091A239C2
:1033A000B091A339ED0130E020E01097A1F4208125
:1033B0003181820F931F2091A0393091A1392817B4
:1033C000390709F061C0E093A039F093A139DF918A
:1033D000CF910895EA01CE17DF07E8F54A815B81B6
:1033E0009E0141155105B1F7E901EA83FB8349913B
:1033F0005991C40FD51FEC17FD0761F480819181AD
:103400000296840F951FE9018883998382819381B5
:103410008A839B83F0E0E0E012968D919C91139754
:103420000097B9F52D913C911197CD010296820F2D
:10343000931F2091A0393091A1392817390739F607
:10344000309751F51092A2391092A339A093A03968
:10345000B093A139BCCFC283D38340815181840F03
:10346000951FC817D90761F44E5F5F4F8881998116
:10347000480F591F408351838A819B8182839383A4
:103480002115310509F0B0CFE093A239F093A339AB
:103490009ECFFD01DC01C0CF12821382D7CFF894FA
:0234A000FFCF5C
:1034A200D007D007D007D007000000006A05420508
:1034B2000709DE0581052F0520050A08100D0706FC
:1034C20005041010800000000010101040400000A1
:1034D20000001000040506070504030201000001B4
:1034E20002030102030000000000010101010101C9
:1034F2000202020200000000102040802010080496
:1035020002010102040802040801070608090E0F5D
:10351200100000000000C9023F026C022F039D024E
:073522007B028F020D0A007D
:0A3529009600610000A43980000044
:0400000300000200F7
:00000001FF
